{
  "contractName": "MappsToken",
  "abi": [
    {
      "inputs": [],
      "stateMutability": "nonpayable",
      "type": "constructor"
    },
    {
      "inputs": [
        {
          "internalType": "address",
          "name": "",
          "type": "address"
        }
      ],
      "name": "balanceOf",
      "outputs": [
        {
          "internalType": "uint256",
          "name": "",
          "type": "uint256"
        }
      ],
      "stateMutability": "view",
      "type": "function",
      "constant": true
    },
    {
      "inputs": [],
      "name": "name",
      "outputs": [
        {
          "internalType": "string",
          "name": "",
          "type": "string"
        }
      ],
      "stateMutability": "view",
      "type": "function",
      "constant": true
    },
    {
      "inputs": [],
      "name": "standard",
      "outputs": [
        {
          "internalType": "string",
          "name": "",
          "type": "string"
        }
      ],
      "stateMutability": "view",
      "type": "function",
      "constant": true
    },
    {
      "inputs": [],
      "name": "symbol",
      "outputs": [
        {
          "internalType": "string",
          "name": "",
          "type": "string"
        }
      ],
      "stateMutability": "view",
      "type": "function",
      "constant": true
    },
    {
      "inputs": [],
      "name": "totalSupply",
      "outputs": [
        {
          "internalType": "uint256",
          "name": "",
          "type": "uint256"
        }
      ],
      "stateMutability": "view",
      "type": "function",
      "constant": true
    },
    {
      "inputs": [],
      "name": "_setTotalSupply",
      "outputs": [],
      "stateMutability": "nonpayable",
      "type": "function"
    },
    {
      "inputs": [
        {
          "internalType": "address",
          "name": "_to",
          "type": "address"
        },
        {
          "internalType": "uint256",
          "name": "_value",
          "type": "uint256"
        }
      ],
      "name": "transfer",
      "outputs": [
        {
          "internalType": "bool",
          "name": "success",
          "type": "bool"
        }
      ],
      "stateMutability": "nonpayable",
      "type": "function"
    }
  ],
  "bytecode": "0x60806040526040518060400160405280600b81526020017f4d6170707320546f6b656e0000000000000000000000000000000000000000008152506000908051906020019061004f92919061015a565b506040518060400160405280600581526020017f4d415050530000000000000000000000000000000000000000000000000000008152506001908051906020019061009b92919061015a565b506040518060400160405280601081526020017f4d6170707320546f6b656e2076312e3000000000000000000000000000000000815250600290805190602001906100e792919061015a565b503480156100f457600080fd5b5061010361010860201b60201c565b61025e565b62989680600381905550600354600460003373ffffffffffffffffffffffffffffffffffffffff1673ffffffffffffffffffffffffffffffffffffffff16815260200190815260200160002081905550565b828054610166906101fd565b90600052602060002090601f01602090048101928261018857600085556101cf565b82601f106101a157805160ff19168380011785556101cf565b828001600101855582156101cf579182015b828111156101ce5782518255916020019190600101906101b3565b5b5090506101dc91906101e0565b5090565b5b808211156101f95760008160009055506001016101e1565b5090565b6000600282049050600182168061021557607f821691505b602082108114156102295761022861022f565b5b50919050565b7f4e487b7100000000000000000000000000000000000000000000000000000000600052602260045260246000fd5b61067d8061026d6000396000f3fe608060405234801561001057600080fd5b506004361061007d5760003560e01c806370a082311161005b57806370a08231146100dc57806395d89b411461010c578063a60b15611461012a578063a9059cbb146101345761007d565b806306fdde031461008257806318160ddd146100a05780635a3b7e42146100be575b600080fd5b61008a610164565b60405161009791906104d3565b60405180910390f35b6100a86101f2565b6040516100b591906104f5565b60405180910390f35b6100c66101f8565b6040516100d391906104d3565b60405180910390f35b6100f660048036038101906100f191906103fc565b610286565b60405161010391906104f5565b60405180910390f35b61011461029e565b60405161012191906104d3565b60405180910390f35b61013261032c565b005b61014e60048036038101906101499190610425565b61037e565b60405161015b91906104b8565b60405180910390f35b60008054610171906105a7565b80601f016020809104026020016040519081016040528092919081815260200182805461019d906105a7565b80156101ea5780601f106101bf576101008083540402835291602001916101ea565b820191906000526020600020905b8154815290600101906020018083116101cd57829003601f168201915b505050505081565b60035481565b60028054610205906105a7565b80601f0160208091040260200160405190810160405280929190818152602001828054610231906105a7565b801561027e5780601f106102535761010080835404028352916020019161027e565b820191906000526020600020905b81548152906001019060200180831161026157829003601f168201915b505050505081565b60046020528060005260406000206000915090505481565b600180546102ab906105a7565b80601f01602080910402602001604051908101604052809291908181526020018280546102d7906105a7565b80156103245780601f106102f957610100808354040283529160200191610324565b820191906000526020600020905b81548152906001019060200180831161030757829003601f168201915b505050505081565b62989680600381905550600354600460003373ffffffffffffffffffffffffffffffffffffffff1673ffffffffffffffffffffffffffffffffffffffff16815260200190815260200160002081905550565b600081600460003373ffffffffffffffffffffffffffffffffffffffff1673ffffffffffffffffffffffffffffffffffffffff1681526020019081526020016000205410156103cc57600080fd5b92915050565b6000813590506103e181610619565b92915050565b6000813590506103f681610630565b92915050565b60006020828403121561040e57600080fd5b600061041c848285016103d2565b91505092915050565b6000806040838503121561043857600080fd5b6000610446858286016103d2565b9250506020610457858286016103e7565b9150509250929050565b61046a8161053e565b82525050565b600061047b82610510565b610485818561051b565b9350610495818560208601610574565b61049e81610608565b840191505092915050565b6104b28161056a565b82525050565b60006020820190506104cd6000830184610461565b92915050565b600060208201905081810360008301526104ed8184610470565b905092915050565b600060208201905061050a60008301846104a9565b92915050565b600081519050919050565b600082825260208201905092915050565b60006105378261054a565b9050919050565b60008115159050919050565b600073ffffffffffffffffffffffffffffffffffffffff82169050919050565b6000819050919050565b60005b83811015610592578082015181840152602081019050610577565b838111156105a1576000848401525b50505050565b600060028204905060018216806105bf57607f821691505b602082108114156105d3576105d26105d9565b5b50919050565b7f4e487b7100000000000000000000000000000000000000000000000000000000600052602260045260246000fd5b6000601f19601f8301169050919050565b6106228161052c565b811461062d57600080fd5b50565b6106398161056a565b811461064457600080fd5b5056fea2646970667358221220ae5e903dad6595829493c32c3f1d0cdfd3c12894ad8f0faf5458fd1f0e35a31b64736f6c63430008040033",
  "immutableReferences": {},
  "source": "pragma solidity ^0.8;\n\ncontract MappsToken {\n    // Constructor \n    // set the total number of tokens\n    // read the total numbe rof tokens \n    string public name = \"Mapps Token\";\n    string public symbol = \"MAPPS\";\n    string public standard = \"Mapps Token v1.0\";\n\n    uint256 public totalSupply;\n    mapping(address => uint256) public balanceOf;\n\n\n    constructor() public{\n        //totalSuPPLY IS A STATE VARIABLE : MEANING AVAILABLE THROUGHOUT THE CONTRACT \n         _setTotalSupply();\n    }\n\n    function _setTotalSupply() public{\n        totalSupply  = 10000000;\n        //allocate the total supply to the admins wallet\n        balanceOf[msg.sender] = totalSupply; \n    }\n\n    //transfer MAAPS TOKEN\n    function transfer(address _to, uint256 _value) public returns (bool success){\n        // Exception if account does not have enouch balance \n        require(balanceOf[msg.sender] >= _value);\n        //transfer the event \n    }\n\n\n}",
  "sourcePath": "/Users/mapps/dApps/token1/contracts/MappsToken.sol",
  "compiler": {
    "name": "solc",
    "version": "0.8.4+commit.c7e474f2.Emscripten.clang"
  },
  "schemaVersion": "3.4.0",
  "updatedAt": "2021-05-04T11:17:13.066Z",
  "networkType": "ethereum",
  "devdoc": {
    "kind": "dev",
    "methods": {},
    "version": 1
  },
  "userdoc": {
    "kind": "user",
    "methods": {},
    "version": 1
  }
}