{
  "contractName": "MappsToken",
  "abi": [
    {
      "inputs": [],
      "stateMutability": "nonpayable",
      "type": "constructor"
    },
    {
      "inputs": [],
      "name": "totalSupply",
      "outputs": [
        {
          "internalType": "uint256",
          "name": "",
          "type": "uint256"
        }
      ],
      "stateMutability": "view",
      "type": "function",
      "constant": true
    }
  ],
  "bytecode": "0x608060405234801561001057600080fd5b506298968060008190555060b3806100296000396000f3fe6080604052348015600f57600080fd5b506004361060285760003560e01c806318160ddd14602d575b600080fd5b60336047565b604051603e9190605a565b60405180910390f35b60005481565b6054816073565b82525050565b6000602082019050606d6000830184604d565b92915050565b600081905091905056fea26469706673582212200a88041ea38da7013344c98e3f7945981aee635fe735fedf6ed4a1c67989249c64736f6c63430008040033",
  "immutableReferences": {},
  "source": "pragma solidity ^0.8;\n\ncontract MappsToken {\n    // Constructor \n    // set the total number of tokens\n    // read the total numbe rof tokens \n\n    uint256 public totalSupply;\n\n    constructor() public{\n        //totalSuPPLY IS A STATE VARIABLE : MEANING AVAILABLE THROUGHOUT THE CONTRACT \n        totalSupply = 10000000;\n\n    }\n}",
  "sourcePath": "/Users/mapps/dApps/token1/contracts/MappsToken.sol",
  "compiler": {
    "name": "solc",
    "version": "0.8.4+commit.c7e474f2.Emscripten.clang"
  },
  "schemaVersion": "3.4.0",
  "updatedAt": "2021-05-04T09:28:38.810Z",
  "networkType": "ethereum",
  "devdoc": {
    "kind": "dev",
    "methods": {},
    "version": 1
  },
  "userdoc": {
    "kind": "user",
    "methods": {},
    "version": 1
  }
}