{
  "contractName": "MappsTokenSale",
  "abi": [
    {
      "inputs": [
        {
          "internalType": "contract MappsToken",
          "name": "_tokenContract",
          "type": "address"
        },
        {
          "internalType": "uint256",
          "name": "_tokenPrice",
          "type": "uint256"
        }
      ],
      "stateMutability": "nonpayable",
      "type": "constructor"
    },
    {
      "anonymous": false,
      "inputs": [
        {
          "indexed": false,
          "internalType": "address",
          "name": "_buyer",
          "type": "address"
        },
        {
          "indexed": false,
          "internalType": "uint256",
          "name": "_amount",
          "type": "uint256"
        }
      ],
      "name": "Sell",
      "type": "event"
    },
    {
      "inputs": [],
      "name": "tokenContract",
      "outputs": [
        {
          "internalType": "contract MappsToken",
          "name": "",
          "type": "address"
        }
      ],
      "stateMutability": "view",
      "type": "function",
      "constant": true
    },
    {
      "inputs": [],
      "name": "tokenPrice",
      "outputs": [
        {
          "internalType": "uint256",
          "name": "",
          "type": "uint256"
        }
      ],
      "stateMutability": "view",
      "type": "function",
      "constant": true
    },
    {
      "inputs": [],
      "name": "tokensSold",
      "outputs": [
        {
          "internalType": "uint256",
          "name": "",
          "type": "uint256"
        }
      ],
      "stateMutability": "view",
      "type": "function",
      "constant": true
    },
    {
      "inputs": [
        {
          "internalType": "uint256",
          "name": "_numberOfTokens",
          "type": "uint256"
        }
      ],
      "name": "buyTokens",
      "outputs": [],
      "stateMutability": "payable",
      "type": "function",
      "payable": true
    },
    {
      "inputs": [],
      "name": "endSale",
      "outputs": [],
      "stateMutability": "nonpayable",
      "type": "function"
    },
    {
      "inputs": [],
      "name": "shutdownICO",
      "outputs": [],
      "stateMutability": "nonpayable",
      "type": "function"
    }
  ],
  "bytecode": "0x608060405234801561001057600080fd5b50604051610ae0380380610ae0833981810160405281019061003291906100eb565b336000806101000a81548173ffffffffffffffffffffffffffffffffffffffff021916908373ffffffffffffffffffffffffffffffffffffffff16021790555081600160006101000a81548173ffffffffffffffffffffffffffffffffffffffff021916908373ffffffffffffffffffffffffffffffffffffffff1602179055508060028190555050506101a3565b6000815190506100d081610175565b92915050565b6000815190506100e58161018c565b92915050565b600080604083850312156100fe57600080fd5b600061010c858286016100c1565b925050602061011d858286016100d6565b9150509250929050565b60006101328261014b565b9050919050565b600061014482610127565b9050919050565b600073ffffffffffffffffffffffffffffffffffffffff82169050919050565b6000819050919050565b61017e81610139565b811461018957600080fd5b50565b6101958161016b565b81146101a057600080fd5b50565b61092e806101b26000396000f3fe6080604052600436106100555760003560e01c80633610724e1461005a578063380d831b14610076578063518ab2a81461008d57806355a373d6146100b85780635e9def33146100e35780637ff9b596146100fa575b600080fd5b610074600480360381019061006f9190610626565b610125565b005b34801561008257600080fd5b5061008b610300565b005b34801561009957600080fd5b506100a26104e4565b6040516100af9190610704565b60405180910390f35b3480156100c457600080fd5b506100cd6104ea565b6040516100da91906106e9565b60405180910390f35b3480156100ef57600080fd5b506100f8610510565b005b34801561010657600080fd5b5061010f610581565b60405161011c9190610704565b60405180910390f35b61013181600254610587565b341461013c57600080fd5b80600160009054906101000a900473ffffffffffffffffffffffffffffffffffffffff1673ffffffffffffffffffffffffffffffffffffffff166370a08231306040518263ffffffff1660e01b815260040161019891906106a5565b60206040518083038186803b1580156101b057600080fd5b505afa1580156101c4573d6000803e3d6000fd5b505050506040513d601f19601f820116820180604052508101906101e8919061064f565b10156101f357600080fd5b600160009054906101000a900473ffffffffffffffffffffffffffffffffffffffff1673ffffffffffffffffffffffffffffffffffffffff1663a9059cbb33836040518363ffffffff1660e01b81526004016102509291906106c0565b602060405180830381600087803b15801561026a57600080fd5b505af115801561027e573d6000803e3d6000fd5b505050506040513d601f19601f820116820180604052508101906102a291906105fd565b6102ab57600080fd5b80600360008282546102bd919061071f565b925050819055507f5e5e995ce3133561afceaa51a9a154d5db228cd7525d34df5185582c18d3df0933826040516102f59291906106c0565b60405180910390a150565b60008054906101000a900473ffffffffffffffffffffffffffffffffffffffff1673ffffffffffffffffffffffffffffffffffffffff163373ffffffffffffffffffffffffffffffffffffffff161461035857600080fd5b600160009054906101000a900473ffffffffffffffffffffffffffffffffffffffff1673ffffffffffffffffffffffffffffffffffffffff1663a9059cbb60008054906101000a900473ffffffffffffffffffffffffffffffffffffffff16600160009054906101000a900473ffffffffffffffffffffffffffffffffffffffff1673ffffffffffffffffffffffffffffffffffffffff166370a08231306040518263ffffffff1660e01b815260040161041291906106a5565b60206040518083038186803b15801561042a57600080fd5b505afa15801561043e573d6000803e3d6000fd5b505050506040513d601f19601f82011682018060405250810190610462919061064f565b6040518363ffffffff1660e01b815260040161047f9291906106c0565b602060405180830381600087803b15801561049957600080fd5b505af11580156104ad573d6000803e3d6000fd5b505050506040513d601f19601f820116820180604052508101906104d191906105fd565b6104da57600080fd5b6104e2610510565b565b60035481565b600160009054906101000a900473ffffffffffffffffffffffffffffffffffffffff1681565b60008054906101000a900473ffffffffffffffffffffffffffffffffffffffff1673ffffffffffffffffffffffffffffffffffffffff163373ffffffffffffffffffffffffffffffffffffffff161461056857600080fd5b3373ffffffffffffffffffffffffffffffffffffffff16ff5b60025481565b6000808214806105af5750828283856105a091906107a6565b9250826105ad9190610775565b145b6105b857600080fd5b92915050565b6000815190506105cd816108ca565b92915050565b6000813590506105e2816108e1565b92915050565b6000815190506105f7816108e1565b92915050565b60006020828403121561060f57600080fd5b600061061d848285016105be565b91505092915050565b60006020828403121561063857600080fd5b6000610646848285016105d3565b91505092915050565b60006020828403121561066157600080fd5b600061066f848285016105e8565b91505092915050565b61068181610800565b82525050565b61069081610848565b82525050565b61069f8161083e565b82525050565b60006020820190506106ba6000830184610678565b92915050565b60006040820190506106d56000830185610678565b6106e26020830184610696565b9392505050565b60006020820190506106fe6000830184610687565b92915050565b60006020820190506107196000830184610696565b92915050565b600061072a8261083e565b91506107358361083e565b9250827fffffffffffffffffffffffffffffffffffffffffffffffffffffffffffffffff0382111561076a5761076961086c565b5b828201905092915050565b60006107808261083e565b915061078b8361083e565b92508261079b5761079a61089b565b5b828204905092915050565b60006107b18261083e565b91506107bc8361083e565b9250817fffffffffffffffffffffffffffffffffffffffffffffffffffffffffffffffff04831182151516156107f5576107f461086c565b5b828202905092915050565b600061080b8261081e565b9050919050565b60008115159050919050565b600073ffffffffffffffffffffffffffffffffffffffff82169050919050565b6000819050919050565b60006108538261085a565b9050919050565b60006108658261081e565b9050919050565b7f4e487b7100000000000000000000000000000000000000000000000000000000600052601160045260246000fd5b7f4e487b7100000000000000000000000000000000000000000000000000000000600052601260045260246000fd5b6108d381610812565b81146108de57600080fd5b50565b6108ea8161083e565b81146108f557600080fd5b5056fea2646970667358221220a8ed37ef8610cf71cb4a369fd8f1e94c38de5513d753e2dece8beb662bfd4aaf64736f6c63430008040033",
  "immutableReferences": {},
  "source": "pragma solidity ^0.8;\n\nimport \"./MappsToken.sol\";\n\ncontract MappsTokenSale{\n    address  admin;\n    MappsToken public tokenContract;\n    uint256 public tokenPrice;\n    uint256 public tokensSold;\n\n    event Sell(address _buyer, uint256 _amount);\n\n\n    constructor(MappsToken _tokenContract, uint256 _tokenPrice) public {\n        //assign an admin\n        admin = msg.sender;\n        //link to token contract \n        tokenContract = _tokenContract;\n        //token price \n        tokenPrice = _tokenPrice;\n\n    }\n\n    //multiply\n    function multiply(uint x, uint y) internal pure returns (uint z) {\n        require(y == 0 || (z = x * y) / y == x);\n    }\n\n    function buyTokens(uint256 _numberOfTokens) public payable{\n        \n        // require that the value is equal to tokens\n        require(msg.value == multiply(_numberOfTokens , tokenPrice));\n        // Require that contract has enough tokens \n        require(tokenContract.balanceOf(address(this)) >= _numberOfTokens);\n        //require that the transfer is succccesfull\n        require(tokenContract.transfer(msg.sender,_numberOfTokens));\n        //track number of tokens sold \n        tokensSold += _numberOfTokens;\n        // emit the sell event \n        emit Sell(msg.sender, _numberOfTokens);\n    }\n    //End the token sale \n    function endSale() public {\n        // Require admin \n        require(msg.sender == admin);\n        //transfer remaining dapp tokens to admin \n        require(tokenContract.transfer(admin, tokenContract.balanceOf(address(this))));\n        // destroy contract \n        shutdownICO();\n\n\n        // UPDATE: Let's not destroy the contract here\n        // Just transfer the balance to the admin\n        //admin.transfer(address(this).balance);\n\n    }\n\n    /// destroy the contract and reclaim the leftover funds.\n    function shutdownICO() public {\n        require(msg.sender == admin);\n        selfdestruct(payable(msg.sender));\n    }\n\n}",
  "sourcePath": "/Users/mapps/dApps/token1/contracts/MappsTokenSale.sol",
  "compiler": {
    "name": "solc",
    "version": "0.8.4+commit.c7e474f2.Emscripten.clang"
  },
  "schemaVersion": "3.4.0",
  "updatedAt": "2021-05-06T07:54:03.691Z",
  "networkType": "ethereum",
  "devdoc": {
    "kind": "dev",
    "methods": {},
    "version": 1
  },
  "userdoc": {
    "kind": "user",
    "methods": {
      "shutdownICO()": {
        "notice": "destroy the contract and reclaim the leftover funds."
      }
    },
    "version": 1
  }
}