{
  "contractName": "MappsToken",
  "abi": [
    {
      "inputs": [],
      "stateMutability": "nonpayable",
      "type": "constructor"
    },
    {
      "inputs": [],
      "name": "totalSupply",
      "outputs": [
        {
          "internalType": "uint256",
          "name": "",
          "type": "uint256"
        }
      ],
      "stateMutability": "view",
      "type": "function",
      "constant": true
    },
    {
      "inputs": [],
      "name": "_setTotalSupply",
      "outputs": [],
      "stateMutability": "nonpayable",
      "type": "function"
    }
  ],
  "bytecode": "0x608060405234801561001057600080fd5b5061001f61002460201b60201c565b610030565b62989680600081905550565b60d18061003e6000396000f3fe6080604052348015600f57600080fd5b506004361060325760003560e01c806318160ddd146037578063a60b1561146051575b600080fd5b603d6059565b604051604891906078565b60405180910390f35b6057605f565b005b60005481565b62989680600081905550565b6072816091565b82525050565b6000602082019050608b6000830184606b565b92915050565b600081905091905056fea264697066735822122015e057de3ed36fc21f31870a82c555d490b68daa5b56ad2e4eb93e0487a28ad964736f6c63430008040033",
  "immutableReferences": {},
  "source": "pragma solidity ^0.8;\n\ncontract MappsToken {\n    // Constructor \n    // set the total number of tokens\n    // read the total numbe rof tokens \n\n    uint256 public totalSupply;\n\n    constructor() public{\n        //totalSuPPLY IS A STATE VARIABLE : MEANING AVAILABLE THROUGHOUT THE CONTRACT \n         _setTotalSupply();\n    }\n\n    function _setTotalSupply() public{\n        totalSupply  = 10000000;\n    }\n}",
  "sourcePath": "/Users/mapps/dApps/token1/contracts/MappsToken.sol",
  "compiler": {
    "name": "solc",
    "version": "0.8.4+commit.c7e474f2.Emscripten.clang"
  },
  "schemaVersion": "3.4.0",
  "updatedAt": "2021-05-04T10:23:24.236Z",
  "networkType": "ethereum",
  "devdoc": {
    "kind": "dev",
    "methods": {},
    "version": 1
  },
  "userdoc": {
    "kind": "user",
    "methods": {},
    "version": 1
  }
}