{
  "contractName": "MappsToken",
  "abi": [
    {
      "inputs": [],
      "stateMutability": "nonpayable",
      "type": "constructor"
    },
    {
      "anonymous": false,
      "inputs": [
        {
          "indexed": true,
          "internalType": "address",
          "name": "_owner",
          "type": "address"
        },
        {
          "indexed": true,
          "internalType": "address",
          "name": "_spender",
          "type": "address"
        },
        {
          "indexed": false,
          "internalType": "uint256",
          "name": "_value",
          "type": "uint256"
        }
      ],
      "name": "Approval",
      "type": "event"
    },
    {
      "anonymous": false,
      "inputs": [
        {
          "indexed": true,
          "internalType": "address",
          "name": "_from",
          "type": "address"
        },
        {
          "indexed": true,
          "internalType": "address",
          "name": "_to",
          "type": "address"
        },
        {
          "indexed": false,
          "internalType": "uint256",
          "name": "_value",
          "type": "uint256"
        }
      ],
      "name": "Transfer",
      "type": "event"
    },
    {
      "inputs": [
        {
          "internalType": "address",
          "name": "",
          "type": "address"
        },
        {
          "internalType": "address",
          "name": "",
          "type": "address"
        }
      ],
      "name": "allowance",
      "outputs": [
        {
          "internalType": "uint256",
          "name": "",
          "type": "uint256"
        }
      ],
      "stateMutability": "view",
      "type": "function",
      "constant": true
    },
    {
      "inputs": [
        {
          "internalType": "address",
          "name": "",
          "type": "address"
        }
      ],
      "name": "balanceOf",
      "outputs": [
        {
          "internalType": "uint256",
          "name": "",
          "type": "uint256"
        }
      ],
      "stateMutability": "view",
      "type": "function",
      "constant": true
    },
    {
      "inputs": [],
      "name": "name",
      "outputs": [
        {
          "internalType": "string",
          "name": "",
          "type": "string"
        }
      ],
      "stateMutability": "view",
      "type": "function",
      "constant": true
    },
    {
      "inputs": [],
      "name": "standard",
      "outputs": [
        {
          "internalType": "string",
          "name": "",
          "type": "string"
        }
      ],
      "stateMutability": "view",
      "type": "function",
      "constant": true
    },
    {
      "inputs": [],
      "name": "symbol",
      "outputs": [
        {
          "internalType": "string",
          "name": "",
          "type": "string"
        }
      ],
      "stateMutability": "view",
      "type": "function",
      "constant": true
    },
    {
      "inputs": [],
      "name": "totalSupply",
      "outputs": [
        {
          "internalType": "uint256",
          "name": "",
          "type": "uint256"
        }
      ],
      "stateMutability": "view",
      "type": "function",
      "constant": true
    },
    {
      "inputs": [],
      "name": "_setTotalSupply",
      "outputs": [],
      "stateMutability": "nonpayable",
      "type": "function"
    },
    {
      "inputs": [
        {
          "internalType": "address",
          "name": "_to",
          "type": "address"
        },
        {
          "internalType": "uint256",
          "name": "_value",
          "type": "uint256"
        }
      ],
      "name": "transfer",
      "outputs": [
        {
          "internalType": "bool",
          "name": "success",
          "type": "bool"
        }
      ],
      "stateMutability": "nonpayable",
      "type": "function"
    },
    {
      "inputs": [
        {
          "internalType": "address",
          "name": "_spender",
          "type": "address"
        },
        {
          "internalType": "uint256",
          "name": "_value",
          "type": "uint256"
        }
      ],
      "name": "approve",
      "outputs": [
        {
          "internalType": "bool",
          "name": "success",
          "type": "bool"
        }
      ],
      "stateMutability": "nonpayable",
      "type": "function"
    },
    {
      "inputs": [
        {
          "internalType": "address",
          "name": "_from",
          "type": "address"
        },
        {
          "internalType": "address",
          "name": "_to",
          "type": "address"
        },
        {
          "internalType": "uint256",
          "name": "_value",
          "type": "uint256"
        }
      ],
      "name": "transferFrom",
      "outputs": [
        {
          "internalType": "bool",
          "name": "success",
          "type": "bool"
        }
      ],
      "stateMutability": "nonpayable",
      "type": "function"
    }
  ],
  "bytecode": "0x60806040526040518060400160405280600b81526020017f4d6170707320546f6b656e000000000000000000000000000000000000000000815250600090805190602001906200005192919062000164565b506040518060400160405280600581526020017f4d41505053000000000000000000000000000000000000000000000000000000815250600190805190602001906200009f92919062000164565b506040518060400160405280601081526020017f4d6170707320546f6b656e2076312e300000000000000000000000000000000081525060029080519060200190620000ed92919062000164565b50348015620000fb57600080fd5b506200010c6200011260201b60201c565b62000279565b62989680600381905550600354600460003373ffffffffffffffffffffffffffffffffffffffff1673ffffffffffffffffffffffffffffffffffffffff16815260200190815260200160002081905550565b828054620001729062000214565b90600052602060002090601f016020900481019282620001965760008555620001e2565b82601f10620001b157805160ff1916838001178555620001e2565b82800160010185558215620001e2579182015b82811115620001e1578251825591602001919060010190620001c4565b5b509050620001f19190620001f5565b5090565b5b8082111562000210576000816000905550600101620001f6565b5090565b600060028204905060018216806200022d57607f821691505b602082108114156200024457620002436200024a565b5b50919050565b7f4e487b7100000000000000000000000000000000000000000000000000000000600052602260045260246000fd5b610d2480620002896000396000f3fe608060405234801561001057600080fd5b506004361061009e5760003560e01c806370a082311161006657806370a082311461015d57806395d89b411461018d578063a60b1561146101ab578063a9059cbb146101b5578063dd62ed3e146101e55761009e565b806306fdde03146100a3578063095ea7b3146100c157806318160ddd146100f157806323b872dd1461010f5780635a3b7e421461013f575b600080fd5b6100ab610215565b6040516100b89190610ac1565b60405180910390f35b6100db60048036038101906100d69190610a13565b6102a3565b6040516100e89190610aa6565b60405180910390f35b6100f9610395565b6040516101069190610ae3565b60405180910390f35b610129600480360381019061012491906109c4565b61039b565b6040516101369190610aa6565b60405180910390f35b610147610621565b6040516101549190610ac1565b60405180910390f35b6101776004803603810190610172919061095f565b6106af565b6040516101849190610ae3565b60405180910390f35b6101956106c7565b6040516101a29190610ac1565b60405180910390f35b6101b3610755565b005b6101cf60048036038101906101ca9190610a13565b6107a7565b6040516101dc9190610aa6565b60405180910390f35b6101ff60048036038101906101fa9190610988565b610910565b60405161020c9190610ae3565b60405180910390f35b6000805461022290610c1f565b80601f016020809104026020016040519081016040528092919081815260200182805461024e90610c1f565b801561029b5780601f106102705761010080835404028352916020019161029b565b820191906000526020600020905b81548152906001019060200180831161027e57829003601f168201915b505050505081565b600081600560003373ffffffffffffffffffffffffffffffffffffffff1673ffffffffffffffffffffffffffffffffffffffff16815260200190815260200160002060008573ffffffffffffffffffffffffffffffffffffffff1673ffffffffffffffffffffffffffffffffffffffff168152602001908152602001600020819055508273ffffffffffffffffffffffffffffffffffffffff163373ffffffffffffffffffffffffffffffffffffffff167f8c5be1e5ebec7d5bd14f71427d1e84f3dd0314c0f7b2291e5b200ac8c7c3b925846040516103839190610ae3565b60405180910390a36001905092915050565b60035481565b6000600460008573ffffffffffffffffffffffffffffffffffffffff1673ffffffffffffffffffffffffffffffffffffffff168152602001908152602001600020548211156103e957600080fd5b600560008573ffffffffffffffffffffffffffffffffffffffff1673ffffffffffffffffffffffffffffffffffffffff16815260200190815260200160002060003373ffffffffffffffffffffffffffffffffffffffff1673ffffffffffffffffffffffffffffffffffffffff1681526020019081526020016000205482111561047257600080fd5b81600460008673ffffffffffffffffffffffffffffffffffffffff1673ffffffffffffffffffffffffffffffffffffffff16815260200190815260200160002060008282546104c19190610b70565b9250508190555081600460008573ffffffffffffffffffffffffffffffffffffffff1673ffffffffffffffffffffffffffffffffffffffff16815260200190815260200160002060008282546105179190610b1a565b9250508190555081600560008673ffffffffffffffffffffffffffffffffffffffff1673ffffffffffffffffffffffffffffffffffffffff16815260200190815260200160002060003373ffffffffffffffffffffffffffffffffffffffff1673ffffffffffffffffffffffffffffffffffffffff16815260200190815260200160002060008282546105aa9190610b70565b925050819055508273ffffffffffffffffffffffffffffffffffffffff168473ffffffffffffffffffffffffffffffffffffffff167fddf252ad1be2c89b69c2b068fc378daa952ba7f163c4a11628f55a4df523b3ef8460405161060e9190610ae3565b60405180910390a3600190509392505050565b6002805461062e90610c1f565b80601f016020809104026020016040519081016040528092919081815260200182805461065a90610c1f565b80156106a75780601f1061067c576101008083540402835291602001916106a7565b820191906000526020600020905b81548152906001019060200180831161068a57829003601f168201915b505050505081565b60046020528060005260406000206000915090505481565b600180546106d490610c1f565b80601f016020809104026020016040519081016040528092919081815260200182805461070090610c1f565b801561074d5780601f106107225761010080835404028352916020019161074d565b820191906000526020600020905b81548152906001019060200180831161073057829003601f168201915b505050505081565b62989680600381905550600354600460003373ffffffffffffffffffffffffffffffffffffffff1673ffffffffffffffffffffffffffffffffffffffff16815260200190815260200160002081905550565b600081600460003373ffffffffffffffffffffffffffffffffffffffff1673ffffffffffffffffffffffffffffffffffffffff1681526020019081526020016000205410156107f557600080fd5b81600460003373ffffffffffffffffffffffffffffffffffffffff1673ffffffffffffffffffffffffffffffffffffffff16815260200190815260200160002060008282546108449190610b70565b9250508190555081600460008573ffffffffffffffffffffffffffffffffffffffff1673ffffffffffffffffffffffffffffffffffffffff168152602001908152602001600020600082825461089a9190610b1a565b925050819055508273ffffffffffffffffffffffffffffffffffffffff163373ffffffffffffffffffffffffffffffffffffffff167fddf252ad1be2c89b69c2b068fc378daa952ba7f163c4a11628f55a4df523b3ef846040516108fe9190610ae3565b60405180910390a36001905092915050565b6005602052816000526040600020602052806000526040600020600091509150505481565b60008135905061094481610cc0565b92915050565b60008135905061095981610cd7565b92915050565b60006020828403121561097157600080fd5b600061097f84828501610935565b91505092915050565b6000806040838503121561099b57600080fd5b60006109a985828601610935565b92505060206109ba85828601610935565b9150509250929050565b6000806000606084860312156109d957600080fd5b60006109e786828701610935565b93505060206109f886828701610935565b9250506040610a098682870161094a565b9150509250925092565b60008060408385031215610a2657600080fd5b6000610a3485828601610935565b9250506020610a458582860161094a565b9150509250929050565b610a5881610bb6565b82525050565b6000610a6982610afe565b610a738185610b09565b9350610a83818560208601610bec565b610a8c81610caf565b840191505092915050565b610aa081610be2565b82525050565b6000602082019050610abb6000830184610a4f565b92915050565b60006020820190508181036000830152610adb8184610a5e565b905092915050565b6000602082019050610af86000830184610a97565b92915050565b600081519050919050565b600082825260208201905092915050565b6000610b2582610be2565b9150610b3083610be2565b9250827fffffffffffffffffffffffffffffffffffffffffffffffffffffffffffffffff03821115610b6557610b64610c51565b5b828201905092915050565b6000610b7b82610be2565b9150610b8683610be2565b925082821015610b9957610b98610c51565b5b828203905092915050565b6000610baf82610bc2565b9050919050565b60008115159050919050565b600073ffffffffffffffffffffffffffffffffffffffff82169050919050565b6000819050919050565b60005b83811015610c0a578082015181840152602081019050610bef565b83811115610c19576000848401525b50505050565b60006002820490506001821680610c3757607f821691505b60208210811415610c4b57610c4a610c80565b5b50919050565b7f4e487b7100000000000000000000000000000000000000000000000000000000600052601160045260246000fd5b7f4e487b7100000000000000000000000000000000000000000000000000000000600052602260045260246000fd5b6000601f19601f8301169050919050565b610cc981610ba4565b8114610cd457600080fd5b50565b610ce081610be2565b8114610ceb57600080fd5b5056fea26469706673582212207274f13f623a1ea80ec9207d5e7a25d69f913537dd5ca89a9729c59a4cc2c35e64736f6c63430008040033",
  "immutableReferences": {},
  "source": "pragma solidity ^0.8;\n\ncontract MappsToken {\n    // Constructor \n    // set the total number of tokens\n    // read the total numbe rof tokens \n    string public name = \"Mapps Token\";\n    string public symbol = \"MAPPS\";\n    string public standard = \"Mapps Token v1.0\";\n\n    uint256 public totalSupply;\n    mapping(address => uint256) public balanceOf;\n    mapping(address=> mapping(address=>uint256)) public allowance;\n\n    event Transfer(\n        address indexed _from,\n        address indexed _to, \n        uint256 _value\n    );\n    event Approval(\n        address indexed _owner,\n        address indexed _spender, \n        uint256 _value\n    );\n\n    constructor() public{\n        //totalSuPPLY IS A STATE VARIABLE : MEANING AVAILABLE THROUGHOUT THE CONTRACT \n         _setTotalSupply();\n    }\n\n    function _setTotalSupply() public{\n        totalSupply  = 10000000;\n        //allocate the total supply to the admins wallet\n        balanceOf[msg.sender] = totalSupply; \n    }\n\n    //transfer MAAPS TOKEN\n    function transfer(address _to, uint256 _value) public returns (bool success){\n        // Exception if account does not have enouch balance \n        require(balanceOf[msg.sender] >= _value);\n        //transfer the balance \n        balanceOf[msg.sender]  -= _value;\n        balanceOf[_to] += _value;\n        //trigger transfer the event even if transfer is zero\n        emit Transfer(msg.sender, _to, _value);\n        return true;\n    }\n    //approve transaction through exchange or thirdp\n    function approve(address _spender, uint256 _value) public returns (bool success){\n        \n        allowance[msg.sender][_spender] = _value;\n        //approve event \n        emit Approval(msg.sender, _spender, _value);\n      return true;\n    }\n\n    //transfer from \n    function transferFrom(address _from, address _to, uint256 _value) public returns (bool success){\n        //three accounts used here. 1- the account that is calling the function, -2 the account to transfer from -3 and trhe account to transfer to \n        \n        // require _from has enough tokens \n        require(_value <= balanceOf[_from]);\n        // require  allowance  is big enough \n        require(_value <= allowance[_from][msg.sender]);\n        // change the balance \n        balanceOf[_from] -= _value;\n        balanceOf[_to]   += _value;\n        // update the allowance \n        allowance[_from][msg.sender] -= _value;\n        // trigger transfer event \n        emit Transfer(_from, _to, _value);\n        //return a boolean\n        return true;\n    }\n    \n\n\n}",
  "sourcePath": "/Users/mapps/dApps/token1/contracts/MappsToken.sol",
  "compiler": {
    "name": "solc",
    "version": "0.8.4+commit.c7e474f2.Emscripten.clang"
  },
  "schemaVersion": "3.4.0",
  "updatedAt": "2021-05-06T07:54:03.682Z",
  "networkType": "ethereum",
  "devdoc": {
    "kind": "dev",
    "methods": {},
    "version": 1
  },
  "userdoc": {
    "kind": "user",
    "methods": {},
    "version": 1
  }
}